{
    "contractName": "Sweeper",
    "abi": [
        {
            "inputs": [],
            "stateMutability": "nonpayable",
            "type": "constructor"
        },
        {
            "inputs": [
                {
                    "internalType": "address payable",
                    "name": "recipient",
                    "type": "address"
                },
                {
                    "internalType": "address[]",
                    "name": "tokens",
                    "type": "address[]"
                },
                {
                    "internalType": "uint256[]",
                    "name": "amounts",
                    "type": "uint256[]"
                }
            ],
            "name": "execSweep",
            "outputs": [],
            "stateMutability": "payable",
            "type": "function"
        }
    ],
    "bytecode": "608060405234801561000f575f80fd5b5061040a8061001d5f395ff3fe60806040526004361061001d575f3560e01c8063af4e4c6e14610021575b5f80fd5b61003461002f3660046102de565b610036565b005b8281146100a15760405162461bcd60e51b815260206004820152602f60248201527f546f6b656e20616e6420416d6f756e7420617272617973206d7573742062652060448201526e7468652073616d652073697a65212160881b606482015260840160405180910390fd5b6100ae85858585856100be565b6100b785610249565b5050505050565b825f5b81811015610240575f8686838181106100dc576100dc61035b565b90506020020160208101906100f1919061036f565b9050806001600160a01b03166323b872dd33308888878181106101165761011661035b565b6040516001600160e01b031960e088901b1681526001600160a01b039586166004820152949093166024850152506020909102013560448201526064016020604051808303815f875af115801561016f573d5f803e3d5ffd5b505050506040513d601f19601f820116820180604052508101906101939190610391565b50806001600160a01b031663a9059cbb898787868181106101b6576101b661035b565b6040516001600160e01b031960e087901b1681526001600160a01b03909416600485015260200291909101356024830152506044016020604051808303815f875af1158015610207573d5f803e3d5ffd5b505050506040513d601f19601f8201168201806040525081019061022b9190610391565b50508080610238906103b0565b9150506100c1565b50505050505050565b6040516001600160a01b038216903480156108fc02915f818181858888f1935050505015801561027b573d5f803e3d5ffd5b5050565b6001600160a01b0381168114610293575f80fd5b50565b5f8083601f8401126102a6575f80fd5b50813567ffffffffffffffff8111156102bd575f80fd5b6020830191508360208260051b85010111156102d7575f80fd5b9250929050565b5f805f805f606086880312156102f2575f80fd5b85356102fd8161027f565b9450602086013567ffffffffffffffff80821115610319575f80fd5b61032589838a01610296565b9096509450604088013591508082111561033d575f80fd5b5061034a88828901610296565b969995985093965092949392505050565b634e487b7160e01b5f52603260045260245ffd5b5f6020828403121561037f575f80fd5b813561038a8161027f565b9392505050565b5f602082840312156103a1575f80fd5b8151801515811461038a575f80fd5b5f600182016103cd57634e487b7160e01b5f52601160045260245ffd5b506001019056fea2646970667358221220844dc6636ee8d1dc4b78d19deb08b6c566d72038194420987f3c4e2ac74c8b1a64736f6c63430008140033",
    "sourcePath": "c:/RB/funToken/Fun-Token-Exercise/contracts/sweeper.sol",
    "compiler": {
        "name": "solc",
        "version": "0.8.20+commit.a1b79de6"
    },
    "functionHashes": {
        "execSweep(address,address[],uint256[])": "af4e4c6e"
    },
    "gasEstimates": {
        "creation": {
            "codeDepositCost": "206800",
            "executionCost": "249",
            "totalCost": "207049"
        },
        "external": {
            "execSweep(address,address[],uint256[])": "infinite"
        },
        "internal": {
            "sweepETH(address payable)": "infinite",
            "sweepTokens(address,address[] calldata,uint256[] calldata)": "infinite"
        }
    }
}