{
    "contractName": "Sweeper",
    "abi": [
        {
            "inputs": [],
            "stateMutability": "nonpayable",
            "type": "constructor"
        },
        {
            "anonymous": false,
            "inputs": [
                {
                    "indexed": false,
                    "internalType": "address",
                    "name": "sweepedAccount",
                    "type": "address"
                }
            ],
            "name": "Sweeped",
            "type": "event"
        },
        {
            "inputs": [
                {
                    "internalType": "address payable",
                    "name": "recipient",
                    "type": "address"
                },
                {
                    "internalType": "address[]",
                    "name": "tokens",
                    "type": "address[]"
                },
                {
                    "internalType": "uint256[]",
                    "name": "amounts",
                    "type": "uint256[]"
                }
            ],
            "name": "execSweep",
            "outputs": [],
            "stateMutability": "payable",
            "type": "function"
        }
    ],
    "bytecode": "608060405234801561000f575f80fd5b5061043b8061001d5f395ff3fe60806040526004361061001d575f3560e01c8063af4e4c6e14610021575b5f80fd5b61003461002f36600461030f565b610036565b005b82811461009f5760405162461bcd60e51b815260206004820152602d60248201527f546f6b656e20616e6420416d6f756e7420617272617973206d7573742062652060448201526c7468652073616d652073697a6560981b606482015260840160405180910390fd5b6100ac85858585856100ef565b6100b58561027a565b6040513381527f9cbf71fc3abff260bc6bf454d05c83db5be3cf220bdd794a9c88779043f470cc9060200160405180910390a15050505050565b825f5b81811015610271575f86868381811061010d5761010d61038c565b905060200201602081019061012291906103a0565b9050806001600160a01b03166323b872dd33308888878181106101475761014761038c565b6040516001600160e01b031960e088901b1681526001600160a01b039586166004820152949093166024850152506020909102013560448201526064016020604051808303815f875af11580156101a0573d5f803e3d5ffd5b505050506040513d601f19601f820116820180604052508101906101c491906103c2565b50806001600160a01b031663a9059cbb898787868181106101e7576101e761038c565b6040516001600160e01b031960e087901b1681526001600160a01b03909416600485015260200291909101356024830152506044016020604051808303815f875af1158015610238573d5f803e3d5ffd5b505050506040513d601f19601f8201168201806040525081019061025c91906103c2565b50508080610269906103e1565b9150506100f2565b50505050505050565b6040516001600160a01b038216903480156108fc02915f818181858888f193505050501580156102ac573d5f803e3d5ffd5b5050565b6001600160a01b03811681146102c4575f80fd5b50565b5f8083601f8401126102d7575f80fd5b50813567ffffffffffffffff8111156102ee575f80fd5b6020830191508360208260051b8501011115610308575f80fd5b9250929050565b5f805f805f60608688031215610323575f80fd5b853561032e816102b0565b9450602086013567ffffffffffffffff8082111561034a575f80fd5b61035689838a016102c7565b9096509450604088013591508082111561036e575f80fd5b5061037b888289016102c7565b969995985093965092949392505050565b634e487b7160e01b5f52603260045260245ffd5b5f602082840312156103b0575f80fd5b81356103bb816102b0565b9392505050565b5f602082840312156103d2575f80fd5b815180151581146103bb575f80fd5b5f600182016103fe57634e487b7160e01b5f52601160045260245ffd5b506001019056fea26469706673582212207f1c9df529b0d56f6c3b66c52300ceb2bfb9e9e3efda07df815b3bf8c93b849264736f6c63430008140033",
    "sourcePath": "c:/RB/funToken/Fun-Token-Exercise/contracts/sweeper.sol",
    "compiler": {
        "name": "solc",
        "version": "0.8.20+commit.a1b79de6"
    },
    "functionHashes": {
        "execSweep(address,address[],uint256[])": "af4e4c6e"
    },
    "gasEstimates": {
        "creation": {
            "codeDepositCost": "216600",
            "executionCost": "255",
            "totalCost": "216855"
        },
        "external": {
            "execSweep(address,address[],uint256[])": "infinite"
        },
        "internal": {
            "sweepETH(address payable)": "infinite",
            "sweepTokens(address,address[] calldata,uint256[] calldata)": "infinite"
        }
    }
}