{
    "contractName": "Token",
    "abi": [
        {
            "inputs": [
                {
                    "internalType": "uint256",
                    "name": "totalSupply",
                    "type": "uint256"
                },
                {
                    "internalType": "address",
                    "name": "assetManager",
                    "type": "address"
                },
                {
                    "internalType": "string",
                    "name": "name",
                    "type": "string"
                },
                {
                    "internalType": "string",
                    "name": "symbol",
                    "type": "string"
                }
            ],
            "stateMutability": "nonpayable",
            "type": "constructor"
        },
        {
            "inputs": [
                {
                    "internalType": "uint256",
                    "name": "increasedSupply",
                    "type": "uint256"
                },
                {
                    "internalType": "uint256",
                    "name": "cap",
                    "type": "uint256"
                }
            ],
            "name": "ERC20ExceededCap",
            "type": "error"
        },
        {
            "inputs": [
                {
                    "internalType": "address",
                    "name": "spender",
                    "type": "address"
                },
                {
                    "internalType": "uint256",
                    "name": "allowance",
                    "type": "uint256"
                },
                {
                    "internalType": "uint256",
                    "name": "needed",
                    "type": "uint256"
                }
            ],
            "name": "ERC20InsufficientAllowance",
            "type": "error"
        },
        {
            "inputs": [
                {
                    "internalType": "address",
                    "name": "sender",
                    "type": "address"
                },
                {
                    "internalType": "uint256",
                    "name": "balance",
                    "type": "uint256"
                },
                {
                    "internalType": "uint256",
                    "name": "needed",
                    "type": "uint256"
                }
            ],
            "name": "ERC20InsufficientBalance",
            "type": "error"
        },
        {
            "inputs": [
                {
                    "internalType": "address",
                    "name": "approver",
                    "type": "address"
                }
            ],
            "name": "ERC20InvalidApprover",
            "type": "error"
        },
        {
            "inputs": [
                {
                    "internalType": "uint256",
                    "name": "cap",
                    "type": "uint256"
                }
            ],
            "name": "ERC20InvalidCap",
            "type": "error"
        },
        {
            "inputs": [
                {
                    "internalType": "address",
                    "name": "receiver",
                    "type": "address"
                }
            ],
            "name": "ERC20InvalidReceiver",
            "type": "error"
        },
        {
            "inputs": [
                {
                    "internalType": "address",
                    "name": "sender",
                    "type": "address"
                }
            ],
            "name": "ERC20InvalidSender",
            "type": "error"
        },
        {
            "inputs": [
                {
                    "internalType": "address",
                    "name": "spender",
                    "type": "address"
                }
            ],
            "name": "ERC20InvalidSpender",
            "type": "error"
        },
        {
            "anonymous": false,
            "inputs": [
                {
                    "indexed": true,
                    "internalType": "address",
                    "name": "owner",
                    "type": "address"
                },
                {
                    "indexed": true,
                    "internalType": "address",
                    "name": "spender",
                    "type": "address"
                },
                {
                    "indexed": false,
                    "internalType": "uint256",
                    "name": "value",
                    "type": "uint256"
                }
            ],
            "name": "Approval",
            "type": "event"
        },
        {
            "anonymous": false,
            "inputs": [
                {
                    "indexed": true,
                    "internalType": "address",
                    "name": "from",
                    "type": "address"
                },
                {
                    "indexed": true,
                    "internalType": "address",
                    "name": "to",
                    "type": "address"
                },
                {
                    "indexed": false,
                    "internalType": "uint256",
                    "name": "value",
                    "type": "uint256"
                }
            ],
            "name": "Transfer",
            "type": "event"
        },
        {
            "inputs": [
                {
                    "internalType": "address",
                    "name": "owner",
                    "type": "address"
                },
                {
                    "internalType": "address",
                    "name": "spender",
                    "type": "address"
                }
            ],
            "name": "allowance",
            "outputs": [
                {
                    "internalType": "uint256",
                    "name": "",
                    "type": "uint256"
                }
            ],
            "stateMutability": "view",
            "type": "function"
        },
        {
            "inputs": [
                {
                    "internalType": "address",
                    "name": "spender",
                    "type": "address"
                },
                {
                    "internalType": "uint256",
                    "name": "value",
                    "type": "uint256"
                }
            ],
            "name": "approve",
            "outputs": [
                {
                    "internalType": "bool",
                    "name": "",
                    "type": "bool"
                }
            ],
            "stateMutability": "nonpayable",
            "type": "function"
        },
        {
            "inputs": [
                {
                    "internalType": "address",
                    "name": "account",
                    "type": "address"
                }
            ],
            "name": "balanceOf",
            "outputs": [
                {
                    "internalType": "uint256",
                    "name": "",
                    "type": "uint256"
                }
            ],
            "stateMutability": "view",
            "type": "function"
        },
        {
            "inputs": [],
            "name": "cap",
            "outputs": [
                {
                    "internalType": "uint256",
                    "name": "",
                    "type": "uint256"
                }
            ],
            "stateMutability": "view",
            "type": "function"
        },
        {
            "inputs": [],
            "name": "decimals",
            "outputs": [
                {
                    "internalType": "uint8",
                    "name": "",
                    "type": "uint8"
                }
            ],
            "stateMutability": "view",
            "type": "function"
        },
        {
            "inputs": [],
            "name": "name",
            "outputs": [
                {
                    "internalType": "string",
                    "name": "",
                    "type": "string"
                }
            ],
            "stateMutability": "view",
            "type": "function"
        },
        {
            "inputs": [],
            "name": "symbol",
            "outputs": [
                {
                    "internalType": "string",
                    "name": "",
                    "type": "string"
                }
            ],
            "stateMutability": "view",
            "type": "function"
        },
        {
            "inputs": [],
            "name": "totalSupply",
            "outputs": [
                {
                    "internalType": "uint256",
                    "name": "",
                    "type": "uint256"
                }
            ],
            "stateMutability": "view",
            "type": "function"
        },
        {
            "inputs": [
                {
                    "internalType": "address",
                    "name": "to",
                    "type": "address"
                },
                {
                    "internalType": "uint256",
                    "name": "value",
                    "type": "uint256"
                }
            ],
            "name": "transfer",
            "outputs": [
                {
                    "internalType": "bool",
                    "name": "",
                    "type": "bool"
                }
            ],
            "stateMutability": "nonpayable",
            "type": "function"
        },
        {
            "inputs": [
                {
                    "internalType": "address",
                    "name": "from",
                    "type": "address"
                },
                {
                    "internalType": "address",
                    "name": "to",
                    "type": "address"
                },
                {
                    "internalType": "uint256",
                    "name": "value",
                    "type": "uint256"
                }
            ],
            "name": "transferFrom",
            "outputs": [
                {
                    "internalType": "bool",
                    "name": "",
                    "type": "bool"
                }
            ],
            "stateMutability": "nonpayable",
            "type": "function"
        }
    ],
    "bytecode": "60a060405234801562000010575f80fd5b5060405162000cec38038062000cec83398101604081905262000033916200032b565b838282600362000044838262000445565b50600462000053828262000445565b505050805f036200007e5760405163392e1e2760e01b81525f60048201526024015b60405180910390fd5b6080526200008d838562000097565b5050505062000533565b6001600160a01b038216620000c25760405163ec442f0560e01b81525f600482015260240162000075565b620000cf5f8383620000d3565b5050565b620000e08383836200013e565b6001600160a01b03831662000139575f620000fa60805190565b90505f6200010760025490565b905081811115620001365760405163279e7e1560e21b8152600481018290526024810183905260440162000075565b50505b505050565b6001600160a01b0383166200016c578060025f8282546200016091906200050d565b90915550620001de9050565b6001600160a01b0383165f9081526020819052604090205481811015620001c05760405163391434e360e21b81526001600160a01b0385166004820152602481018290526044810183905260640162000075565b6001600160a01b0384165f9081526020819052604090209082900390555b6001600160a01b038216620001fc576002805482900390556200021a565b6001600160a01b0382165f9081526020819052604090208054820190555b816001600160a01b0316836001600160a01b03167fddf252ad1be2c89b69c2b068fc378daa952ba7f163c4a11628f55a4df523b3ef836040516200026091815260200190565b60405180910390a3505050565b634e487b7160e01b5f52604160045260245ffd5b5f82601f83011262000291575f80fd5b81516001600160401b0380821115620002ae57620002ae6200026d565b604051601f8301601f19908116603f01168101908282118183101715620002d957620002d96200026d565b81604052838152602092508683858801011115620002f5575f80fd5b5f91505b83821015620003185785820183015181830184015290820190620002f9565b5f93810190920192909252949350505050565b5f805f80608085870312156200033f575f80fd5b845160208601519094506001600160a01b03811681146200035e575f80fd5b60408601519093506001600160401b03808211156200037b575f80fd5b620003898883890162000281565b935060608701519150808211156200039f575f80fd5b50620003ae8782880162000281565b91505092959194509250565b600181811c90821680620003cf57607f821691505b602082108103620003ee57634e487b7160e01b5f52602260045260245ffd5b50919050565b601f82111562000139575f81815260208120601f850160051c810160208610156200041c5750805b601f850160051c820191505b818110156200043d5782815560010162000428565b505050505050565b81516001600160401b038111156200046157620004616200026d565b6200047981620004728454620003ba565b84620003f4565b602080601f831160018114620004af575f8415620004975750858301515b5f19600386901b1c1916600185901b1785556200043d565b5f85815260208120601f198616915b82811015620004df57888601518255948401946001909101908401620004be565b5085821015620004fd57878501515f19600388901b60f8161c191681555b5050505050600190811b01905550565b808201808211156200052d57634e487b7160e01b5f52601160045260245ffd5b92915050565b608051610799620005535f395f8181610116015261047c01526107995ff3fe608060405234801561000f575f80fd5b506004361061009b575f3560e01c8063355274ea11610063578063355274ea1461011457806370a082311461013a57806395d89b4114610162578063a9059cbb1461016a578063dd62ed3e1461017d575f80fd5b806306fdde031461009f578063095ea7b3146100bd57806318160ddd146100e057806323b872dd146100f2578063313ce56714610105575b5f80fd5b6100a76101b5565b6040516100b491906105f4565b60405180910390f35b6100d06100cb36600461065a565b610245565b60405190151581526020016100b4565b6002545b6040519081526020016100b4565b6100d0610100366004610682565b61025e565b604051601281526020016100b4565b7f00000000000000000000000000000000000000000000000000000000000000006100e4565b6100e46101483660046106bb565b6001600160a01b03165f9081526020819052604090205490565b6100a7610281565b6100d061017836600461065a565b610290565b6100e461018b3660046106db565b6001600160a01b039182165f90815260016020908152604080832093909416825291909152205490565b6060600380546101c49061070c565b80601f01602080910402602001604051908101604052809291908181526020018280546101f09061070c565b801561023b5780601f106102125761010080835404028352916020019161023b565b820191905f5260205f20905b81548152906001019060200180831161021e57829003601f168201915b5050505050905090565b5f3361025281858561029d565b60019150505b92915050565b5f3361026b8582856102af565b61027685858561032f565b506001949350505050565b6060600480546101c49061070c565b5f3361025281858561032f565b6102aa838383600161038c565b505050565b6001600160a01b038381165f908152600160209081526040808320938616835292905220545f198114610329578181101561031b57604051637dc7a0d960e11b81526001600160a01b038416600482015260248101829052604481018390526064015b60405180910390fd5b61032984848484035f61038c565b50505050565b6001600160a01b03831661035857604051634b637e8f60e11b81525f6004820152602401610312565b6001600160a01b0382166103815760405163ec442f0560e01b81525f6004820152602401610312565b6102aa83838361045e565b6001600160a01b0384166103b55760405163e602df0560e01b81525f6004820152602401610312565b6001600160a01b0383166103de57604051634a1406b160e11b81525f6004820152602401610312565b6001600160a01b038085165f908152600160209081526040808320938716835292905220829055801561032957826001600160a01b0316846001600160a01b03167f8c5be1e5ebec7d5bd14f71427d1e84f3dd0314c0f7b2291e5b200ac8c7c3b9258460405161045091815260200190565b60405180910390a350505050565b6104698383836104ce565b6001600160a01b0383166102aa576002547f000000000000000000000000000000000000000000000000000000000000000090818111156104c75760405163279e7e1560e21b81526004810182905260248101839052604401610312565b5050505050565b6001600160a01b0383166104f8578060025f8282546104ed9190610744565b909155506105689050565b6001600160a01b0383165f908152602081905260409020548181101561054a5760405163391434e360e21b81526001600160a01b03851660048201526024810182905260448101839052606401610312565b6001600160a01b0384165f9081526020819052604090209082900390555b6001600160a01b038216610584576002805482900390556105a2565b6001600160a01b0382165f9081526020819052604090208054820190555b816001600160a01b0316836001600160a01b03167fddf252ad1be2c89b69c2b068fc378daa952ba7f163c4a11628f55a4df523b3ef836040516105e791815260200190565b60405180910390a3505050565b5f6020808352835180828501525f5b8181101561061f57858101830151858201604001528201610603565b505f604082860101526040601f19601f8301168501019250505092915050565b80356001600160a01b0381168114610655575f80fd5b919050565b5f806040838503121561066b575f80fd5b6106748361063f565b946020939093013593505050565b5f805f60608486031215610694575f80fd5b61069d8461063f565b92506106ab6020850161063f565b9150604084013590509250925092565b5f602082840312156106cb575f80fd5b6106d48261063f565b9392505050565b5f80604083850312156106ec575f80fd5b6106f58361063f565b91506107036020840161063f565b90509250929050565b600181811c9082168061072057607f821691505b60208210810361073e57634e487b7160e01b5f52602260045260245ffd5b50919050565b8082018082111561025857634e487b7160e01b5f52601160045260245ffdfea2646970667358221220e69a4ed69bbb15802d2712795b670df555bf9e0ff52e2259d54f6dd7baf6c0da64736f6c63430008140033",
    "sourcePath": "c:/RB/funToken/Fun-Token-Exercise/contracts/token.sol",
    "compiler": {
        "name": "solc",
        "version": "0.8.20+commit.a1b79de6"
    },
    "functionHashes": {
        "allowance(address,address)": "dd62ed3e",
        "approve(address,uint256)": "095ea7b3",
        "balanceOf(address)": "70a08231",
        "cap()": "355274ea",
        "decimals()": "313ce567",
        "name()": "06fdde03",
        "symbol()": "95d89b41",
        "totalSupply()": "18160ddd",
        "transfer(address,uint256)": "a9059cbb",
        "transferFrom(address,address,uint256)": "23b872dd"
    },
    "gasEstimates": {
        "creation": {
            "codeDepositCost": "389000",
            "executionCost": "infinite",
            "totalCost": "infinite"
        },
        "external": {
            "allowance(address,address)": "infinite",
            "approve(address,uint256)": "24735",
            "balanceOf(address)": "2559",
            "cap()": "infinite",
            "decimals()": "265",
            "name()": "infinite",
            "symbol()": "infinite",
            "totalSupply()": "2325",
            "transfer(address,uint256)": "infinite",
            "transferFrom(address,address,uint256)": "infinite"
        }
    }
}